{
  "_format": "hh-sol-artifact-1",
  "contractName": "RecordStorage",
  "sourceName": "contracts/RecordStorage.sol",
  "abi": [
    {
      "anonymous": false,
      "inputs": [
        {
          "indexed": false,
          "internalType": "uint256",
          "name": "id",
          "type": "uint256"
        },
        {
          "indexed": false,
          "internalType": "string",
          "name": "content",
          "type": "string"
        },
        {
          "indexed": false,
          "internalType": "address",
          "name": "creator",
          "type": "address"
        }
      ],
      "name": "RecordUpdated",
      "type": "event"
    },
    {
      "inputs": [
        {
          "internalType": "string",
          "name": "_content",
          "type": "string"
        }
      ],
      "name": "addRecord",
      "outputs": [],
      "stateMutability": "nonpayable",
      "type": "function"
    },
    {
      "inputs": [
        {
          "internalType": "uint256",
          "name": "_id",
          "type": "uint256"
        }
      ],
      "name": "getRecord",
      "outputs": [
        {
          "internalType": "uint256",
          "name": "",
          "type": "uint256"
        },
        {
          "internalType": "string",
          "name": "",
          "type": "string"
        },
        {
          "internalType": "address",
          "name": "",
          "type": "address"
        }
      ],
      "stateMutability": "view",
      "type": "function"
    },
    {
      "inputs": [],
      "name": "nextId",
      "outputs": [
        {
          "internalType": "uint256",
          "name": "",
          "type": "uint256"
        }
      ],
      "stateMutability": "view",
      "type": "function"
    },
    {
      "inputs": [
        {
          "internalType": "uint256",
          "name": "",
          "type": "uint256"
        }
      ],
      "name": "records",
      "outputs": [
        {
          "internalType": "uint256",
          "name": "id",
          "type": "uint256"
        },
        {
          "internalType": "string",
          "name": "content",
          "type": "string"
        },
        {
          "internalType": "address",
          "name": "creator",
          "type": "address"
        }
      ],
      "stateMutability": "view",
      "type": "function"
    }
  ],
  "bytecode": "0x6080604052348015600f57600080fd5b50610abe8061001f6000396000f3fe608060405234801561001057600080fd5b506004361061004c5760003560e01c806303e9e60914610051578063344610671461008357806361b8ce8c146100b5578063d81aa8c4146100d3575b600080fd5b61006b6004803603810190610066919061044f565b6100ef565b60405161007a9392919061055c565b60405180910390f35b61009d6004803603810190610098919061044f565b610224565b6040516100ac9392919061055c565b60405180910390f35b6100bd6102f6565b6040516100ca919061059a565b60405180910390f35b6100ed60048036038101906100e891906106ea565b6102fc565b005b600060606000806000808681526020019081526020016000206040518060600160405290816000820154815260200160018201805461012d90610762565b80601f016020809104026020016040519081016040528092919081815260200182805461015990610762565b80156101a65780601f1061017b576101008083540402835291602001916101a6565b820191906000526020600020905b81548152906001019060200180831161018957829003601f168201915b505050505081526020016002820160009054906101000a900473ffffffffffffffffffffffffffffffffffffffff1673ffffffffffffffffffffffffffffffffffffffff1673ffffffffffffffffffffffffffffffffffffffff16815250509050806000015181602001518260400151935093509350509193909250565b600060205280600052604060002060009150905080600001549080600101805461024d90610762565b80601f016020809104026020016040519081016040528092919081815260200182805461027990610762565b80156102c65780601f1061029b576101008083540402835291602001916102c6565b820191906000526020600020905b8154815290600101906020018083116102a957829003601f168201915b5050505050908060020160009054906101000a900473ffffffffffffffffffffffffffffffffffffffff16905083565b60015481565b604051806060016040528060015481526020018281526020013373ffffffffffffffffffffffffffffffffffffffff168152506000806001548152602001908152602001600020600082015181600001556020820151816001019081610362919061093f565b5060408201518160020160006101000a81548173ffffffffffffffffffffffffffffffffffffffff021916908373ffffffffffffffffffffffffffffffffffffffff1602179055509050507fcadbf794f7c080a697db450a1e9938f42724d1b6a9c239f42689cad6d2f329b160015482336040516103e29392919061055c565b60405180910390a1600160008154809291906103fd90610a40565b919050555050565b6000604051905090565b600080fd5b600080fd5b6000819050919050565b61042c81610419565b811461043757600080fd5b50565b60008135905061044981610423565b92915050565b6000602082840312156104655761046461040f565b5b60006104738482850161043a565b91505092915050565b61048581610419565b82525050565b600081519050919050565b600082825260208201905092915050565b60005b838110156104c55780820151818401526020810190506104aa565b60008484015250505050565b6000601f19601f8301169050919050565b60006104ed8261048b565b6104f78185610496565b93506105078185602086016104a7565b610510816104d1565b840191505092915050565b600073ffffffffffffffffffffffffffffffffffffffff82169050919050565b60006105468261051b565b9050919050565b6105568161053b565b82525050565b6000606082019050610571600083018661047c565b818103602083015261058381856104e2565b9050610592604083018461054d565b949350505050565b60006020820190506105af600083018461047c565b92915050565b600080fd5b600080fd5b7f4e487b7100000000000000000000000000000000000000000000000000000000600052604160045260246000fd5b6105f7826104d1565b810181811067ffffffffffffffff82111715610616576106156105bf565b5b80604052505050565b6000610629610405565b905061063582826105ee565b919050565b600067ffffffffffffffff821115610655576106546105bf565b5b61065e826104d1565b9050602081019050919050565b82818337600083830152505050565b600061068d6106888461063a565b61061f565b9050828152602081018484840111156106a9576106a86105ba565b5b6106b484828561066b565b509392505050565b600082601f8301126106d1576106d06105b5565b5b81356106e184826020860161067a565b91505092915050565b600060208284031215610700576106ff61040f565b5b600082013567ffffffffffffffff81111561071e5761071d610414565b5b61072a848285016106bc565b91505092915050565b7f4e487b7100000000000000000000000000000000000000000000000000000000600052602260045260246000fd5b6000600282049050600182168061077a57607f821691505b60208210810361078d5761078c610733565b5b50919050565b60008190508160005260206000209050919050565b60006020601f8301049050919050565b600082821b905092915050565b6000600883026107f57fffffffffffffffffffffffffffffffffffffffffffffffffffffffffffffffff826107b8565b6107ff86836107b8565b95508019841693508086168417925050509392505050565b6000819050919050565b600061083c61083761083284610419565b610817565b610419565b9050919050565b6000819050919050565b61085683610821565b61086a61086282610843565b8484546107c5565b825550505050565b600090565b61087f610872565b61088a81848461084d565b505050565b5b818110156108ae576108a3600082610877565b600181019050610890565b5050565b601f8211156108f3576108c481610793565b6108cd846107a8565b810160208510156108dc578190505b6108f06108e8856107a8565b83018261088f565b50505b505050565b600082821c905092915050565b6000610916600019846008026108f8565b1980831691505092915050565b600061092f8383610905565b9150826002028217905092915050565b6109488261048b565b67ffffffffffffffff811115610961576109606105bf565b5b61096b8254610762565b6109768282856108b2565b600060209050601f8311600181146109a95760008415610997578287015190505b6109a18582610923565b865550610a09565b601f1984166109b786610793565b60005b828110156109df578489015182556001820191506020850194506020810190506109ba565b868310156109fc57848901516109f8601f891682610905565b8355505b6001600288020188555050505b505050505050565b7f4e487b7100000000000000000000000000000000000000000000000000000000600052601160045260246000fd5b6000610a4b82610419565b91507fffffffffffffffffffffffffffffffffffffffffffffffffffffffffffffffff8203610a7d57610a7c610a11565b5b60018201905091905056fea264697066735822122048905ba129a6868429a9a23348212bf5ad9218db0649ef74765d8aedcef0ae0f64736f6c634300081c0033",
  "linkReferences": {},
  "deployedLinkReferences": {}
}